:020000040800F2
:1000000000500020E5160008B50A0008B70A0008ED
:10001000B90A0008BB0A0008BD0A00080000000079
:10002000000000000000000000000000BF0A0008FF
:10003000C10A000800000000C30A0008C50A000841
:100040002D1700082D1700082D1700082D17000880
:100050002D1700082D1700082D1700082D17000870
:100060002D1700082D1700082D1700082D17000860
:100070002D1700082D1700082D1700082D17000850
:100080002D1700082D1700082D1700082D17000840
:100090002D1700082D1700082D1700082D17000830
:1000A0002D1700082D1700082D1700082D17000820
:1000B0002D1700082D1700082D1700082D17000810
:1000C0002D1700082D1700082D1700082D17000800
:1000D0002D1700082D1700082D1700082D170008F0
:1000E0002D1700082D1700082D170008000000002C
:1000F0000000000000000000000000000000000000
:0C01000000000000000000005FF808F1A3
:10010C0010B5054C237833B9044B13B10448AFF345
:10011C0000800123237010BD0400002000000000AB
:10012C008817000808B5034B1BB103490348AFF30C
:10013C00008008BD0000000008000020881700089F
:10014C0010B401290FD004291DD010291DD040292D
:10015C001DD0B1F5807F1CD0B1F5806F01D0062287
:10016C0002E0052200E0002218300B4B995C43584A
:10017C000A4C14F802C0042202FA0CF223EA02031D
:10018C00435010BC70470122EEE70222ECE7032239
:10019C00EAE70422E8E700BFB0170008B817000828
:1001AC0010B54FEA116E50F80E3091FAA1FCBCFA62
:1001BC008CFC4FEA8C0C0F2404FA0CFC23EA0C0385
:1001CC0091FAA1F1B1FA81F1890002FA01F1194316
:1001DC0040F80E1010BD00002DE9F0438DB0002545
:1001EC000A950B9505950695079508950995714BFC
:1001FC009A6942F010029A619A6902F01002049214
:10020C00049A9A6942F020029A619A6902F02002DB
:10021C000392039A9A6942F004029A619A6902F075
:10022C0004020292029A9A6942F008029A619B694E
:10023C0003F008030193019B5F484FF400530361E3
:10024C005E4E41F230037361DFF874914FF41F433B
:10025C00C9F814305B4B0593012406944FF0030846
:10026C00CDF81C8005A900F079FE574B0593069438
:10027C0002270797089505A9304600F06FFE534BEF
:10028C00059306940797089505A9484600F066FE65
:10029C004F4B05930694CDF81C80089505A948464C
:1002AC0000F05CFE43F2300305930694CDF81C80FD
:1002BC00089505A9304600F051FE464A916821F098
:1002CC000F010F2393FAA3F3B3FA83F304FA03F3A6
:1002DC000B439360916821F0F001F02393FAA3F3A0
:1002EC00B3FA83F304FA03F30B439360916821F49C
:1002FC0070614FF4706393FAA3F3B3FA83F304FAC7
:10030C0003F30B4393600A948DF82C408DF82D5019
:10031C008DF82E400AA800F097FF0A978DF82C4014
:10032C008DF82D508DF82E400AA800F08DFF4FF05F
:10033C000408CDF828808DF82C408DF82D508DF8C0
:10034C002E400AA800F080FFF36823F0010394FA12
:10035C00A4F2B2FA82F204FA02F21343F360F368E5
:10036C0023F0020397FAA7F7B7FA87F704FA07F70F
:10037C001F43F760F36823F0040398FAA8F8B8FA5F
:10038C0088F804FA08F41C43F460082240F20111C6
:10039C003046FFF705FF082240F202213046FFF7F6
:1003AC00FFFE082240F204413046FFF7F9FE0DB083
:1003BC00BDE8F0830010024000100140000C014029
:1003CC000008014020002004100010040F000F044E
:1003DC00900090040000014030B591B000240E94C0
:1003EC000F940D94089409940A940B940C94039410
:1003FC0004940594069407942B4B9A6942F400726A
:10040C009A619A6902F400720292029A9A6942F015
:10041C0004029A619B6903F004030193019B41F66A
:10042C001F73039303A9214800F098FD0E940F94B9
:10043C001F4D0EA9284600F039FE0D940DA9284633
:10044C0000F018FE4FF46023089309940A940B945F
:10045C000C9408A9284600F03DFE16494FF4407351
:10046C0093FAA3F3B3FA83F34FF4007222FA03F373
:10047C0051F8232022F01F0241F823200E484FF0A0
:10048C00007393FAA3F2B2FA82F2D34050F823200D
:10049C004FF0F87191FAA1F422F0070291FAA1F150
:1004AC0040F8232011B030BD00100240000801407C
:1004BC00002401402C2401400C24014030B593B0A1
:1004CC002822002108A801F051F900240394049477
:1004DC000594069407941F4B9A6942F480529A61D2
:1004EC009A6902F480520292029A9A6942F00402CA
:1004FC009A619B6903F004030193019B4AF2A003E8
:10050C0003930923049303230593134D03A928464E
:10051C0000F024FD44F2400303930423049303A945
:10052C00284600F01BFD08944FF4827309930A943B
:10053C000B940C944FF400730D9320230E930F9493
:10054C0010940A23119308A9044800F0E7FE13B095
:10055C0030BD00BF001002400008014000300140D7
:10056C0010B586B000230193029303930493059373
:10057C0003F1804303F50433DA6942F00202DA61D5
:10058C00DB6903F002030093009B472303930E4C9B
:10059C0001A9204600F0C4FF236823F080032360E8
:1005AC00A36823F4804323F00703A360236843F07C
:1005BC0008032360636823F070036360A36823F06F
:1005CC008003A36006B010BD000400402DE9F04785
:1005DC0094B000250F951095119512951395202226
:1005EC00294607A801F0C2F80295039504950595D4
:1005FC000695434EF36943F00403F361F36903F08A
:10060C0004030193019B1123ADF83C304FF6FF73AB
:10061C0011933C4C0FA9204600F082FF236823F075
:10062C0080032360A36823F4804323F00703A360B3
:10063C00354F4FF08048D8F8183843F00803C8F805
:10064C00183870230793089509954FF4805ACDF804
:10065C0028A04FF00209CDF82C9007AA01212046C2
:10066C0000F096FF01212046FFF76AFDD8F81838F4
:10067C0043F40063C8F8183807AA1021204600F08C
:10068C0087FF10212046FFF75BFD7B6843F00803D2
:10069C007B6007AA4FF48071204600F079FF4FF47D
:1006AC0080712046FFF74CFD7B6843F400637B6050
:1006BC0007AA5146204600F06BFF51462046FFF733
:1006CC003FFD636823F070036360A36823F080032D
:1006DC00A360B36943F00803B361B36903F0080383
:1006EC000093009B094B029309230393CDF81090C0
:1006FC00059502A9064800F031FC14B0BDE8F0875E
:10070C00001002400008004018080040C3C0030459
:10071C00000C01402DE9F0439BB000241594169475
:10072C00179418941994202221460DA801F01EF854
:10073C000794089409940A940B940C9402940394CF
:10074C00049405940694434EB36943F40063B36177
:10075C00B36903F400630193019B41F61F431793A4
:10076C003D4D15A9284600F0DBFE2B6823F08003D5
:10077C002B60AB6823F4804323F00703AB60DFF8F6
:10078C00DC90374FD7F8183C43F00803C7F8183CF7
:10079C0060230D930E940F9410941194129413944F
:1007AC004FF48078CDF850800DAA0121284600F036
:1007BC00EFFE01212846FFF7C3FCD7F8183C43F4A1
:1007CC000063C7F8183C0DAA1021284600F0E0FE83
:1007DC0010212846FFF7B4FCD9F8043043F0080385
:1007EC00C9F804300DAA4146284600F0D1FE414616
:1007FC002846FFF7A5FC6B6823F070036B60AB68B1
:10080C0023F08003AB600794089409948DF828407A
:10081C00ADF82A404FF400530B930C9407A92846CB
:10082C0000F0D4FEB36943F00803B361B36903F07D
:10083C0008030093009B0B4B0293092303930223A1
:10084C000493059402A9084800F088FB1BB0BDE88E
:10085C00F08300BF00100240002C0140182C014016
:10086C0000200140E000E004000C014030B58FB0E6
:10087C0000240794089409940A940B940C940D94F6
:10088C0002940394049405940694214BDA6942F47F
:10089C008022DA61DA6902F480220192019A9A6963
:1008AC0042F008029A619B6903F008030093009BD5
:1008BC00184B02930923039303230493164D02A9A7
:1008CC00284600F04BFB154B02930423039302A91B
:1008DC00284600F043FB4FF4E13307930894099446
:1008EC000A940C230B930C940D940D4C07A92046E1
:1008FC0000F08AFE236923F490432361636923F09B
:10090C002A036361E36843F40053E3600FB030BD26
:10091C000010024004000404000C0140080008040C
:10092C000048004010B5284A136823F0070343F031
:10093C0002031360244B1B6803F00703022BF9D14D
:10094C00224A136843F480331360204B1B6813F462
:10095C00003FFAD01D4A536823F47C1343F4E81388
:10096C005360136843F080731360184B1B6813F0CB
:10097C00007FFAD0154B5A6822F0F0025A605A6880
:10098C0022F4E06242F480625A605A6822F46052A7
:10099C005A605A6822F0030242F002025A600B4B72
:1009AC005B6803F00C03082BF9D1094C204600F0CE
:1009BC001FFC204600F042FC044A536823F44043D9
:1009CC0043F40043536010BD00200240001002406D
:1009DC0000A24A0400B583B02D4B9A6942F0010283
:1009EC009A619A6902F001020192019ADA6942F065
:1009FC008052DA61DB6903F080530093009B254938
:100A0C00CA6822F4E0621204120C234B1343CB602D
:100A1C00224B5A6822F0E0625A605A6842F0007227
:100A2C005A60FFF77FFF642000F0F2FBFFF7D4FB66
:100A3C00FFF7D2FCFFF742FDFFF76CFEFFF7C6FD98
:100A4C00FFF714FFFFF78CFD4FF0E02300249C61AF
:100A5C0007221A61A40084F3098800F0F7F92046F4
:100A6C0000F086F923460E4A2146204600F05CFA37
:100A7C0000F028F800F07AF80A49CB681A0402F062
:100A8C008072DB4303F4807313430B61F4E700BF04
:100A9C000010024000ED00E00003FA0500000140E8
:100AAC00A017000800080140FEE7FEE7FEE7FEE79E
:100ABC00FEE7704770477047EFF30983043383F305
:100ACC00098870470A4B1A6A42F001021A621A6AC4
:100ADC0042F010021A621A6A42F480721A621A6A9E
:100AEC0042F480521A621A6842F001021A6070478E
:100AFC0000080040054A136843F001031360034BE0
:100B0C001B6813F0010FFAD1704700BF00040040BE
:100B1C0038B505460C46FFF7EDFF114B4FF400427C
:100B2C005A61FFF7E7FF0F4B1D730E4B9B6813F0D9
:100B3C00800FFAD10B4A137BDBB20B490B70147389
:100B4C00084B9B6813F0800FFAD1064B1C7BE4B268
:100B5C00FFF7D0FF024B4FF400421A61204638BD1C
:100B6C0000080140003001402000002010B5344C3A
:100B7C00236843F0400323600A2000F049FB0B215B
:100B8C002020FFF7C5FF0A2000F042FB00212120A6
:100B9C00FFF7BEFF03212220FFF7BAFF012123201C
:100BAC00FFF7B6FF00212420FFF7B2FF022125201A
:100BBC00FFF7AEFF27212620FFF7AAFF0A213120DD
:100BCC00FFF7A6FF0A213220FFF7A2FF1D4B4FF4BF
:100BDC0000425A612B232373194B9B6813F0800F2F
:100BEC00FAD1174A137BDBB217490B70EE23137340
:100BFC00134B9B6813F0800FFAD1114B1A7BFF2219
:100C0C001A730F4B9B6813F0800FFAD10C4B1A7BA5
:100C1C00C0221A730A4B9B6813F0800FFAD1084B51
:100C2C001B7BFFF767FF074C4FF400432361FFF773
:100C3C0061FF4FF4805323610A2000F0E9FA10BDE4
:100C4C00003001400008014020000020014B102220
:100C5C005A617047000C0140014B10221A61704719
:100C6C00000C0140014B20225A617047000C0140DE
:100C7C00014B20221A617047000C014008B5FFF7A8
:100C8C00EBFFFFF7F5FFFFF7EDFFFFF7DFFF08BD09
:100C9C0008B5FFF7E1FFFFF7E5FFFFF7E9FF08BD38
:100CAC0008B5FFF7D9FFFFF7D1FF08BD38B50446EB
:100CBC00FFF7CCFF002509E0FFF7D4FF6400E4B296
:100CCC00FFF7CAFFFFF7C2FF0135EDB2072D05D8BC
:100CDC0014F0800FF0D0FFF7CBFFEFE738BD10B565
:100CEC000446FFF7CBFF7820FFF7E0FFFFF7D8FFB4
:100CFC000020FFF7DBFFFFF7D3FF2046FFF7D6FFFF
:100D0C00FFF7CEFFFFF7C4FF10BD10B50446FFF789
:100D1C00B5FF7820FFF7CAFFFFF7C2FF4020FFF7AF
:100D2C00C5FFFFF7BDFF2046FFF7C0FFFFF7B8FF79
:100D3C00FFF7AEFF10BD08B519B1C0B2FFF7E5FF64
:100D4C0008BDC0B2FFF7CBFFFAE710B50446084662
:100D5C000021B030FFF7EFFF2009002140F0100018
:100D6C00FFF7E9FF002104F00F00FFF7E4FF10BDCF
:100D7C0070B5054600260AE001212846FFF7DBFF87
:100D8C000134E4B214F0800FF6D00136F6B2072E1F
:100D9C000ED8002106F1B000FFF7CDFF0021084668
:100DAC00FFF7C9FF00211020FFF7C5FF0024E9E77A
:100DBC0070BD0000F8B507460E46203AD5B210F0CB
:100DCC00800F07D1102B09D031463846FFF7BDFFF5
:100DDC00002433E00236F6B20027F3E731463846FA
:100DEC00FFF7B3FF002408E004EB05130121154ABB
:100DFC00D05CFFF7A0FF0134E4B2072CF4D9711CCE
:100E0C00C9B23846FFF7A1FF002409E004EB051333
:100E1C00083301210B4AD05CFFF78DFF0134E4B29B
:100E2C00072CF3D90CE005EB450304EB430301213C
:100E3C00054AD05CFFF77FFF0134E4B2052CF2D9F0
:100E4C00F8BD00BFE8190008C017000808B500215C
:100E5C00AE20FFF770FF00210846FFF76CFF002162
:100E6C001020FFF768FF00214020FFF764FF0021EE
:100E7C00B020FFF760FF00218120FFF75CFF00210D
:100E8C00FF20FFF758FF0021A120FFF754FF00219E
:100E9C00A620FFF750FF0021A820FFF74CFF0021F0
:100EAC003F20FFF748FF0021C820FFF744FF002137
:100EBC00D320FFF740FF00210846FFF73CFF00213D
:100ECC00D520FFF738FF00218020FFF734FF0021E9
:100EDC00D820FFF730FF00210520FFF72CFF002161
:100EEC00D920FFF728FF0021F120FFF724FF002174
:100EFC00DA20FFF720FF00211220FFF71CFF002152
:100F0C00DB20FFF718FF00213020FFF714FF002132
:100F1C008D20FFF710FF00211420FFF70CFF00219C
:100F2C00AF20FFF708FF08BD2DE9F04105468846C4
:100F3C0017461E46002404E006202844C5B201349E
:100F4C00E4B23A5D42B1334641462846FFF732FFE0
:100F5C000A2EF1D90820F0E7BDE8F0810B68C3F345
:100F6C000F2C9CFAACF2B2FA82F276E0A2F10804F1
:100F7C004FF00113A34043F080634C68082C2CD035
:100F8C001D0E93FAA3F4B4FA84F4A4004FF00F0EE0
:100F9C000EFA04F4465926EA040493FAA3FEBEFAA8
:100FAC008EFE4FEA8E0E4E6806FA0EFE44EA0E04D2
:100FBC0044514C68012C1ED0092C1CD001323CFA37
:100FCC0002F347D00123934013EA0C0FF6D0072A03
:100FDC00CCD840F201139340CFE70D69C6681C0AC8
:100FEC0026EA132694FAA4F4B4FA84F405FA04F469
:100FFC003443C460C4E74FEA136E50F80E4093FAC2
:10100C00A3F5B5FA85F5AD00032606FA05F524EA35
:10101C00050493FAA3F5B5FA85F5AD008E6806FACA
:10102C0005F5254340F80E50CC6893FAA3F6B6FAB2
:10103C0086F6B600042707FA06F625EA060593FAA3
:10104C00A3F3B3FA83F39B0004FA03F32B4340F8A6
:10105C000E30B3E70020F0BD01323CFA02F306D0AB
:10106C000123934013EA0C0FF6D0F0B5AFE7002044
:10107C00704700000C4B9A6803F580639B68134320
:10108C0013F0010F0ED10B6833B1426822F47022B9
:10109C001343436000207047436823F4702343607C
:1010AC00002070470120704700240140836813F032
:1010BC00010F0DD1436823F480734A6813434360D6
:1010CC00836823F400630A6813438360002070472D
:1010DC00012070474B68826812F0010F23D110B4C5
:1010EC00DBB1426822F468428C68234313434360AB
:1010FC00836823F4602323F481730A68CC68224349
:10110C000C692243134383604B68C26A22F4700259
:10111C001343C362002010BC7047426822F468423B
:10112C0013434360E4E7012070470000034B5B6806
:10113C00C3F30313024AD35CD8407047001002403B
:10114C00D81F0008034B5B68C3F30223024AD35C2D
:10115C00D840704700100240E81F0008034B5B6842
:10116C00C3F3C223024AD35CD8407047001002403C
:10117C00E81F00080B4B5B6803F4803343B90A4843
:10118C00084B5B68C3F38343023303FB00F07047E7
:10119C00044B5868C0F34040431C0448B0FBF3F0C8
:1011AC00EEE700BF0010024000093D0000127A007B
:1011BC0008B5054B5B6803F00C03082B01D0034802
:1011CC0008BDFFF7D7FFFBE70010024000127A00C2
:1011DC0010B50446FFF7ECFF2060FFF7A7FF606037
:1011EC00FFF7B0FFA0606068FFF7B8FFE06010BDCC
:1011FC00064BA3FB00239B09013B4FF0E0225361FC
:10120C000023936105231361704700BFD34D621017
:10121C0082B04FF0E0231B690193019BB0F1FF3FBB
:10122C0000D0013038B14FF0E0231B6913F4803F3C
:10123C00F8D00138F6E702B070470000014B186097
:10124C00704700BF0000002010B40346007900284E
:10125C0053D01A68002A5DD05879012818D002287A
:10126C0021D058B101209A79002A51D0022A2FD0CE
:10127C00032A38D0012A20D0012049E026494C68A5
:10128C0024EA02024A601A680C6822430A60EAE700
:10129C002149086820EA02020A601A684868024379
:1012AC004A600020DFE71C49086802430A601A689C
:1012BC00486802434A600020D5E71C68164AD1688A
:1012CC0021EA0401D1601B6891680B4393601FE015
:1012DC001C68114A916821EA040191601B68D1686D
:1012EC000B43D36014E019680B4A94682143916056
:1012FC001B68D1680B43D3600AE0074A11681C686D
:10130C0021EA040111601968536823EA0103536050
:10131C0010BC70470020FBE700040140036813F089
:10132C00400F29D110B4026822F47F4222F0BF0290
:10133C000B684C6823438C682343CC6823430C69AB
:10134C0023434C6923438C692343CC6923430C6AA4
:10135C00234313430360436823F00403CA8A1343F3
:10136C0043600B6AB3F5005F02D0002010BC7047DD
:10137C008B8C03610020F9E70120704730B4036ABD
:10138C0023F001030362036A4468826922F073024A
:10139C000D682A4323F002030D692B4323F001034C
:1013AC004D682B430F4DA84207D044608261CA6838
:1013BC0042630362002030BC704723F008034D6980
:1013CC0043EA850323F004038D6843EA850324F480
:1013DC0080748D692C4324F40074CD6944EA45046F
:1013EC00E3E700BF002C014030B4036A23F0100384
:1013FC000362036A4468826922F4E6420D6842EA99
:10140C00052223F020030D6943EA051323F0100392
:10141C004D6843EA0513104DA84207D04460826121
:10142C00CA6882630362002030BC704723F08003DB
:10143C004D6943EA851323F040038D6843EA851315
:10144C0024F480648D6944EA850424F40064CD6935
:10145C0044EAC504E2E700BF002C014030B4036A43
:10146C0023F480730362036A4468C26922F0730236
:10147C000D682A4323F400730D6943EA052323F412
:10148C0080734D6843EA05230F4DA84207D0446092
:10149C00C261CA68C2630362002030BC704723F487
:1014AC0000634D6943EA852323F480638D6843EA26
:1014BC00852324F480548D6944EA051424F40054E3
:1014CC00CD6944EA4514E2E7002C014030B4036ACC
:1014DC0023F480530362036A4468C26922F4E6422F
:1014EC000D6842EA052223F400530D6943EA0533E3
:1014FC0023F480534D6843EA0533084DA84207D0C6
:10150C004460C261CA6802640362002030BC704748
:10151C0024F480448D6944EA8514F1E7002C0140E1
:10152C0003681A4A90420AD0B0F1804F07D0A2F556
:10153C009432904203D002F58062904203D123F0A2
:10154C0070034A681343114A90420AD0B0F1804F9D
:10155C0007D0A2F59432904203D002F580629042FB
:10156C0003D123F44073CA68134303608B68C362CE
:10157C000B888362054B984205D0436943F0010305
:10158C004361002070470B690363F6E7002C0140B0
:10159C0008B50B461146B3F5807F14D008D8012B43
:1015AC000ED0102B02D1FFF71FFF08E0012006E040
:1015BC00B3F5805F02D1FFF789FF00E0012008BD81
:1015CC00FFF7DCFEFBE7FFF749FFF8E70B7B8A68C8
:1015DC00134323F480634A68134323F400630A68BB
:1015EC00134323F48053CA89134323F400530A6929
:1015FC00134323F480434A69134323F400431343F6
:10160C004364002070470000C36813F4005F01D0EE
:10161C000120704730B585B004460D46C36823F4ED
:10162C00B05323F00C034A68C9680A4329690A437A
:10163C001343C360AB68026922F440521343036145
:10164C006B69426922F44072134343616846FFF7A9
:10165C00BFFD1C4B9C4208D01B4B9C420BD01B4B20
:10166C009C420AD0012005B030BD039B43B32A68CD
:10167C002AB90120F7E7029BF8E7029BF6E703EB98
:10168C00830303EB83039200B3FBF2F31048A0FB3C
:10169C00032149090A0192B2642505FB11331B0190
:1016AC003233A0FB0313C3F34F1303F0F0010A44CE
:1016BC0092B203F00F0313449BB2A3600020D2E755
:1016CC000120D0E7003801400044004000480040B1
:1016DC001F85EB51704700000C480D490D4A002343
:1016EC0002E0D458C4500433C4188C42F9D30A4ACB
:1016FC000A4C002301E013600432A242FBD3FFF733
:10170C00E9FF00F00FF8FFF765F9704700000020C3
:10171C0004000020F81F0008040000202400002012
:10172C00FEE7000070B500260C4D0D4C641BA41098
:10173C00A64209D100F022F800260A4D0A4C641B7F
:10174C00A410A64205D170BD55F8043B984701364C
:10175C00EEE755F8043B98470136F2E7F01F000816
:10176C00F01F0008F01F0008F41F00080346024495
:10177C00934200D1704703F8011BF9E7F8B500BF9D
:10178C00F8BC08BC9E467047F8B500BFF8BC08BC56
:04179C009E467047AE
:1017A0004643202620626C6463447276203A00002F
:1017B000000000000404040000000800000008000D
:1017C0000000000000000000002F000000000700E3
:1017D000070000147F147F1400242A7F2A1200625D
:1017E0006408132300364955225000000503000009
:1017F00000001C224100000041221C000014083E91
:1018000008140008083E0808000000A06000000856
:1018100008080808000060600000002010080402AA
:10182000003E5149453E0000427F40000042615168
:101830004946002141454B31001814127F10002702
:1018400045454539003C4A494930000171090503C5
:1018500000364949493600064949291E00003636F6
:101860000000000056360000000814224100001459
:101870001414141400004122140800020151090636
:1018800000324959513E007C1211127C007F4949B7
:101890004936003E41414122007F4141221C007FE8
:1018A00049494941007F09090901003E4149497AF6
:1018B000007F0808087F0000417F41000020404170
:1018C0003F01007F08142241007F40404040007FDC
:1018D000020C027F007F0408107F003E4141413E20
:1018E000007F09090906003E4151215E007F091968
:1018F00029460046494949310001017F0101003F65
:101900004040403F001F2040201F003F4038403FE4
:101910000063140814630007087008070061514948
:10192000454300007F41410000552A552A550000DB
:1019300041417F0000040201020400404040404059
:10194000000001020400002054545478007F4844F1
:10195000443800384444442000384444487F003828
:101960005454541800087E0901020018A4A4A47C51
:10197000007F080404780000447D4000004080841B
:101980007D00007F102844000000417F4000007C63
:1019900004180478007C080404780038444444386F
:1019A00000FC242424180018242418FC007C0804BB
:1019B000040800485454542000043F444020003C94
:1019C0004040207C001C2040201C003C4030403C1B
:1019D000004428102844001CA0A0A07C00446454AB
:1019E0004C441414141414140000000000000000EF
:1019F0000000000000000000000000F800000000EF
:101A0000000000333000000000100C06100C06002F
:101A1000000000000000000040C07840C078400096
:101A2000043F04043F040400007088FC08300000F8
:101A3000001820FF211E0000F008F000E018000050
:101A400000211C031E211E0000F008887000000009
:101A50001E2123241927211010160E00000000005B
:101A60000000000000000000000000E01804020078
:101A7000000000071820400000020418E0000000E9
:101A80000040201807000000404080F080404000E7
:101A90000202010F01020200000000F0000000003D
:101AA0000101011F01010100000000000000000011
:101AB00080B0700000000000000000000000000086
:101AC000000101010101010100000000000000000F
:101AD00000303000000000000000000080601804AA
:101AE000006018060100000000E010080810E00087
:101AF000000F102020100F00001010F80000000050
:101B00000020203F20200000007008080888700096
:101B10000030282422213000003008888848300016
:101B20000018202020110E000000C02010F8000036
:101B300000070424243F240000F8088888080800CF
:101B40000019212020110E0000E0108888180000E4
:101B5000000F112020110E0000380808C8380800B6
:101B60000000003F00000000007088080888700036
:101B7000001C222121221C0000E010080810E000B7
:101B80000000312222110F00000000C0C000000040
:101B90000000003030000000000000800000000065
:101BA000000080600000000000008040201008005D
:101BB0000001020408102000404040404040400026
:101BC0000404040404040400000810204080000001
:101BD0000020100804020100007048080808F00006
:101BE0000000003036010000C030C828E810E000D6
:101BF0000718272423140B000000C038E000000061
:101C0000203C23020227382008F8888888700000CA
:101C1000203F202020110E00C0300808080838009E
:101C2000071820202010080008F808080810E00015
:101C3000203F202020100F0008F88888E8081000B6
:101C4000203F20202320180008F88888E80810008A
:101C5000203F200003000000C030080808380000C2
:101C600007182020221E020008F808000008F808C3
:101C7000203F210101213F20000808F8080800004A
:101C80000020203F2020000000000808F80808007D
:101C9000C08080807F00000008F888C028180800F5
:101CA000203F20012638200008F80800000000002E
:101CB000203F20202020300008F8F800F8F8080025
:101CC000203F003F003F200008F830C00008F8081F
:101CD000203F200007183F00E01008080810E0002F
:101CE0000F10202020100F0008F808080808F00046
:101CF000203F210101010000E01008080810E00069
:101D00000F18242438504F0008F8888888887000FD
:101D1000203F2000030C302000708808080838009D
:101D20000038202121221C00180808F80808180093
:101D30000000203F2000000008F808000008F80814
:101D4000001F202020201F000878880000C83808C5
:101D5000000007380E010000F80800F80008F8003D
:101D6000033C0700073C03000818688080681808D7
:101D700020302C03032C30200838C800C838080055
:101D80000000203F2000000010080808C8380800A4
:101D90002038262120201800000000FE0202020048
:101DA0000000007F40404000000C30C000000000F8
:101DB000000000010638C00000020202FE00000020
:101DC000004040407F0000000000040202020400C6
:101DD0000000000000000000000000000000000003
:101DE00080808080808080800002020400000000EB
:101DF00000000000000000000000808080800000E3
:101E00000019242222223F2008F8008080000000D0
:101E1000003F112020110E00000000808080000093
:101E2000000E112020201100000000808088F800A2
:101E3000000E112020103F200000808080800000D4
:101E4000001F222222221300008080F08888881838
:101E50000020203F20200000000080808080800043
:101E6000006B94949493600008F8008080800000D8
:101E7000203F210000203F200080989800000000B3
:101E80000020203F202000000000008098980000E3
:101E900000C08080807F000008F800008080800003
:101EA000203F24022D302000000808F80000000028
:101EB0000020203F202000008080808080808000E3
:101EC000203F20003F20003F808000808080000075
:101ED000203F210000203F20000080808080000003
:101EE000001F202020201F00808000808000000034
:101EF00080FFA12020110E00000000808080800063
:101F0000000E112020A0FF80808080008080800053
:101F100020203F2120000100000080808080800080
:101F20000033242424241900008080E080800000F5
:101F30000000001F20200000808000000080800042
:101F4000001F202020103F208080800000808080A3
:101F500000010E3008060100808000800080808033
:101F60000F300C030C300F00008080008080800058
:101F70000020312E0E312000808080000080808083
:101F800080818E7018060100008080808080800033
:101F90000021302C2221300000000000807C020251
:101FA00000000000003F404000000000FF00000073
:101FB00000000000FF0000000002027C8000000022
:101FC0000040403F0000000000060101020204043E
:101FD0000000000000000000000000000000000001
:101FE00001020304060708090000000001020304BF
:041FF00031010008B3
:041FF4000D010008D3
:041FF8000024F400CD
:04000005080016E5F4
:00000001FF
